:020000040000FA
:1000000001286400831603130C308100831203134C
:100010000E308600850183160313003086002230DF
:100020008500831603138E158312031307309F0078
:10003000831203132D2806158615861406106400F6
:10004000FA307520FA307520851E2D28FA3075207B
:10005000FA3075206400643075206400861406153B
:100060008615851A2A28861086117C20851A2A284A
:10007000861486157C20851A2A28861086117C20F5
:10008000851A2A28861486157C20851A2A28861027
:1000900086117C20851A2A28861486157C20851ACC
:1000A0002A28861086117C20851A2A28861406158F
:1000B0008611851A6D28851C62280614013075206A
:1000C000640059286400851A1B2806100615861539
:1000D0008610732086147320622806102A28FF3E9B
:1000E000031D6F280800FA307628F000FE306F20DC
:1000F0006400F00B76280800FA307520FA3075207D
:020100000800F5
:02400E00543F1D
:00000001FF
